{
  "contractName": "DonorDirectory",
  "abi": [
    {
      "inputs": [
        {
          "internalType": "string",
          "name": "place",
          "type": "string"
        }
      ],
      "stateMutability": "nonpayable",
      "type": "constructor"
    },
    {
      "inputs": [
        {
          "internalType": "uint256",
          "name": "",
          "type": "uint256"
        }
      ],
      "name": "donor_array",
      "outputs": [
        {
          "internalType": "uint256",
          "name": "id",
          "type": "uint256"
        },
        {
          "internalType": "address payable",
          "name": "store",
          "type": "address"
        },
        {
          "internalType": "string",
          "name": "name",
          "type": "string"
        },
        {
          "internalType": "uint256",
          "name": "age",
          "type": "uint256"
        },
        {
          "internalType": "uint256",
          "name": "contact_number",
          "type": "uint256"
        },
        {
          "internalType": "uint256",
          "name": "verification_number",
          "type": "uint256"
        },
        {
          "internalType": "string",
          "name": "blood_group",
          "type": "string"
        },
        {
          "components": [
            {
              "internalType": "uint256",
              "name": "organ_Id",
              "type": "uint256"
            },
            {
              "internalType": "string",
              "name": "organ_type",
              "type": "string"
            },
            {
              "internalType": "uint256",
              "name": "donor_Id",
              "type": "uint256"
            },
            {
              "internalType": "uint256",
              "name": "recipient_Id",
              "type": "uint256"
            }
          ],
          "internalType": "struct Organ",
          "name": "organ_type",
          "type": "tuple"
        },
        {
          "internalType": "bool",
          "name": "status",
          "type": "bool"
        },
        {
          "internalType": "bool",
          "name": "death_contract",
          "type": "bool"
        },
        {
          "internalType": "bool",
          "name": "isMedicaallyVerified",
          "type": "bool"
        },
        {
          "internalType": "bool",
          "name": "Verified",
          "type": "bool"
        }
      ],
      "stateMutability": "view",
      "type": "function"
    },
    {
      "inputs": [],
      "name": "donor_count",
      "outputs": [
        {
          "internalType": "uint256",
          "name": "",
          "type": "uint256"
        }
      ],
      "stateMutability": "view",
      "type": "function"
    },
    {
      "inputs": [
        {
          "internalType": "uint256",
          "name": "",
          "type": "uint256"
        }
      ],
      "name": "donor_list",
      "outputs": [
        {
          "internalType": "uint256",
          "name": "id",
          "type": "uint256"
        },
        {
          "internalType": "address payable",
          "name": "store",
          "type": "address"
        },
        {
          "internalType": "string",
          "name": "name",
          "type": "string"
        },
        {
          "internalType": "uint256",
          "name": "age",
          "type": "uint256"
        },
        {
          "internalType": "uint256",
          "name": "contact_number",
          "type": "uint256"
        },
        {
          "internalType": "uint256",
          "name": "verification_number",
          "type": "uint256"
        },
        {
          "internalType": "string",
          "name": "blood_group",
          "type": "string"
        },
        {
          "components": [
            {
              "internalType": "uint256",
              "name": "organ_Id",
              "type": "uint256"
            },
            {
              "internalType": "string",
              "name": "organ_type",
              "type": "string"
            },
            {
              "internalType": "uint256",
              "name": "donor_Id",
              "type": "uint256"
            },
            {
              "internalType": "uint256",
              "name": "recipient_Id",
              "type": "uint256"
            }
          ],
          "internalType": "struct Organ",
          "name": "organ_type",
          "type": "tuple"
        },
        {
          "internalType": "bool",
          "name": "status",
          "type": "bool"
        },
        {
          "internalType": "bool",
          "name": "death_contract",
          "type": "bool"
        },
        {
          "internalType": "bool",
          "name": "isMedicaallyVerified",
          "type": "bool"
        },
        {
          "internalType": "bool",
          "name": "Verified",
          "type": "bool"
        }
      ],
      "stateMutability": "view",
      "type": "function"
    },
    {
      "inputs": [],
      "name": "location",
      "outputs": [
        {
          "internalType": "string",
          "name": "",
          "type": "string"
        }
      ],
      "stateMutability": "view",
      "type": "function"
    },
    {
      "inputs": [],
      "name": "organ_count",
      "outputs": [
        {
          "internalType": "uint256",
          "name": "",
          "type": "uint256"
        }
      ],
      "stateMutability": "view",
      "type": "function"
    },
    {
      "inputs": [
        {
          "internalType": "string",
          "name": "name",
          "type": "string"
        },
        {
          "internalType": "address payable",
          "name": "store",
          "type": "address"
        },
        {
          "internalType": "uint256",
          "name": "age",
          "type": "uint256"
        },
        {
          "internalType": "uint256",
          "name": "contact_number",
          "type": "uint256"
        },
        {
          "internalType": "uint256",
          "name": "verification_number",
          "type": "uint256"
        },
        {
          "internalType": "string",
          "name": "blood_group",
          "type": "string"
        },
        {
          "internalType": "string",
          "name": "organ_type",
          "type": "string"
        },
        {
          "internalType": "bool",
          "name": "status",
          "type": "bool"
        },
        {
          "internalType": "bool",
          "name": "death_contract",
          "type": "bool"
        },
        {
          "internalType": "bool",
          "name": "isMedicaallyVerified",
          "type": "bool"
        }
      ],
      "name": "addDonor",
      "outputs": [],
      "stateMutability": "nonpayable",
      "type": "function"
    },
    {
      "inputs": [
        {
          "internalType": "uint256",
          "name": "id",
          "type": "uint256"
        },
        {
          "internalType": "bool",
          "name": "isMedicaallyVerified",
          "type": "bool"
        }
      ],
      "name": "updateMedicalRecords",
      "outputs": [],
      "stateMutability": "nonpayable",
      "type": "function"
    },
    {
      "inputs": [
        {
          "internalType": "uint256",
          "name": "id",
          "type": "uint256"
        },
        {
          "internalType": "bool",
          "name": "death_contract",
          "type": "bool"
        }
      ],
      "name": "updateDeathContract",
      "outputs": [],
      "stateMutability": "nonpayable",
      "type": "function"
    },
    {
      "inputs": [
        {
          "internalType": "uint256",
          "name": "id",
          "type": "uint256"
        }
      ],
      "name": "removeDonor",
      "outputs": [],
      "stateMutability": "nonpayable",
      "type": "function"
    },
    {
      "inputs": [
        {
          "internalType": "uint256",
          "name": "id",
          "type": "uint256"
        }
      ],
      "name": "getDonor",
      "outputs": [
        {
          "components": [
            {
              "internalType": "uint256",
              "name": "id",
              "type": "uint256"
            },
            {
              "internalType": "address payable",
              "name": "store",
              "type": "address"
            },
            {
              "internalType": "string",
              "name": "name",
              "type": "string"
            },
            {
              "internalType": "uint256",
              "name": "age",
              "type": "uint256"
            },
            {
              "internalType": "uint256",
              "name": "contact_number",
              "type": "uint256"
            },
            {
              "internalType": "uint256",
              "name": "verification_number",
              "type": "uint256"
            },
            {
              "internalType": "string",
              "name": "blood_group",
              "type": "string"
            },
            {
              "components": [
                {
                  "internalType": "uint256",
                  "name": "organ_Id",
                  "type": "uint256"
                },
                {
                  "internalType": "string",
                  "name": "organ_type",
                  "type": "string"
                },
                {
                  "internalType": "uint256",
                  "name": "donor_Id",
                  "type": "uint256"
                },
                {
                  "internalType": "uint256",
                  "name": "recipient_Id",
                  "type": "uint256"
                }
              ],
              "internalType": "struct Organ",
              "name": "organ_type",
              "type": "tuple"
            },
            {
              "internalType": "bool",
              "name": "status",
              "type": "bool"
            },
            {
              "internalType": "bool",
              "name": "death_contract",
              "type": "bool"
            },
            {
              "internalType": "bool",
              "name": "isMedicaallyVerified",
              "type": "bool"
            },
            {
              "internalType": "bool",
              "name": "Verified",
              "type": "bool"
            }
          ],
          "internalType": "struct Donor",
          "name": "",
          "type": "tuple"
        }
      ],
      "stateMutability": "view",
      "type": "function"
    },
    {
      "inputs": [
        {
          "internalType": "uint256",
          "name": "id",
          "type": "uint256"
        }
      ],
      "name": "getDonorId",
      "outputs": [
        {
          "internalType": "address",
          "name": "",
          "type": "address"
        }
      ],
      "stateMutability": "view",
      "type": "function"
    },
    {
      "inputs": [
        {
          "internalType": "uint256",
          "name": "contact_number",
          "type": "uint256"
        },
        {
          "internalType": "uint256",
          "name": "verification_number",
          "type": "uint256"
        }
      ],
      "name": "siteVerification",
      "outputs": [
        {
          "internalType": "bool",
          "name": "",
          "type": "bool"
        }
      ],
      "stateMutability": "nonpayable",
      "type": "function"
    },
    {
      "inputs": [],
      "name": "getArray",
      "outputs": [
        {
          "components": [
            {
              "internalType": "uint256",
              "name": "id",
              "type": "uint256"
            },
            {
              "internalType": "address payable",
              "name": "store",
              "type": "address"
            },
            {
              "internalType": "string",
              "name": "name",
              "type": "string"
            },
            {
              "internalType": "uint256",
              "name": "age",
              "type": "uint256"
            },
            {
              "internalType": "uint256",
              "name": "contact_number",
              "type": "uint256"
            },
            {
              "internalType": "uint256",
              "name": "verification_number",
              "type": "uint256"
            },
            {
              "internalType": "string",
              "name": "blood_group",
              "type": "string"
            },
            {
              "components": [
                {
                  "internalType": "uint256",
                  "name": "organ_Id",
                  "type": "uint256"
                },
                {
                  "internalType": "string",
                  "name": "organ_type",
                  "type": "string"
                },
                {
                  "internalType": "uint256",
                  "name": "donor_Id",
                  "type": "uint256"
                },
                {
                  "internalType": "uint256",
                  "name": "recipient_Id",
                  "type": "uint256"
                }
              ],
              "internalType": "struct Organ",
              "name": "organ_type",
              "type": "tuple"
            },
            {
              "internalType": "bool",
              "name": "status",
              "type": "bool"
            },
            {
              "internalType": "bool",
              "name": "death_contract",
              "type": "bool"
            },
            {
              "internalType": "bool",
              "name": "isMedicaallyVerified",
              "type": "bool"
            },
            {
              "internalType": "bool",
              "name": "Verified",
              "type": "bool"
            }
          ],
          "internalType": "struct Donor[]",
          "name": "",
          "type": "tuple[]"
        }
      ],
      "stateMutability": "view",
      "type": "function"
    }
  ],
  "bytecode": "0x60806040523480156200001157600080fd5b5060405162002ab638038062002ab68339818101604052810190620000379190620001e3565b80600390816200004891906200047f565b505062000566565b6000604051905090565b600080fd5b600080fd5b600080fd5b600080fd5b6000601f19601f8301169050919050565b7f4e487b7100000000000000000000000000000000000000000000000000000000600052604160045260246000fd5b620000b9826200006e565b810181811067ffffffffffffffff82111715620000db57620000da6200007f565b5b80604052505050565b6000620000f062000050565b9050620000fe8282620000ae565b919050565b600067ffffffffffffffff8211156200012157620001206200007f565b5b6200012c826200006e565b9050602081019050919050565b60005b83811015620001595780820151818401526020810190506200013c565b60008484015250505050565b60006200017c620001768462000103565b620000e4565b9050828152602081018484840111156200019b576200019a62000069565b5b620001a884828562000139565b509392505050565b600082601f830112620001c857620001c762000064565b5b8151620001da84826020860162000165565b91505092915050565b600060208284031215620001fc57620001fb6200005a565b5b600082015167ffffffffffffffff8111156200021d576200021c6200005f565b5b6200022b84828501620001b0565b91505092915050565b600081519050919050565b7f4e487b7100000000000000000000000000000000000000000000000000000000600052602260045260246000fd5b600060028204905060018216806200028757607f821691505b6020821081036200029d576200029c6200023f565b5b50919050565b60008190508160005260206000209050919050565b60006020601f8301049050919050565b600082821b905092915050565b600060088302620003077fffffffffffffffffffffffffffffffffffffffffffffffffffffffffffffffff82620002c8565b620003138683620002c8565b95508019841693508086168417925050509392505050565b6000819050919050565b6000819050919050565b6000620003606200035a62000354846200032b565b62000335565b6200032b565b9050919050565b6000819050919050565b6200037c836200033f565b620003946200038b8262000367565b848454620002d5565b825550505050565b600090565b620003ab6200039c565b620003b881848462000371565b505050565b5b81811015620003e057620003d4600082620003a1565b600181019050620003be565b5050565b601f8211156200042f57620003f981620002a3565b6200040484620002b8565b8101602085101562000414578190505b6200042c6200042385620002b8565b830182620003bd565b50505b505050565b600082821c905092915050565b6000620004546000198460080262000434565b1980831691505092915050565b60006200046f838362000441565b9150826002028217905092915050565b6200048a8262000234565b67ffffffffffffffff811115620004a657620004a56200007f565b5b620004b282546200026e565b620004bf828285620003e4565b600060209050601f831160018114620004f75760008415620004e2578287015190505b620004ee858262000461565b8655506200055e565b601f1984166200050786620002a3565b60005b8281101562000531578489015182556001820191506020850194506020810190506200050a565b868310156200055157848901516200054d601f89168262000441565b8355505b6001600288020188555050505b505050505050565b61254080620005766000396000f3fe608060405234801561001057600080fd5b50600436106100cf5760003560e01c8063823a88fa1161008c578063a2bfcd2911610066578063a2bfcd2914610209578063b3cbd75414610239578063d504ea1d14610274578063e0819ce414610292576100cf565b8063823a88fa146101b357806392d2a460146101cf578063985f6970146101ed576100cf565b806306428cef146100d45780630cecd7c2146100f05780633cb19e521461010e578063516f279e1461012a578063583e8a0a146101485780636136a90614610183575b600080fd5b6100ee60048036038101906100e9919061178c565b6102c2565b005b6100f86102f3565b60405161010591906117db565b60405180910390f35b610128600480360381019061012391906117f6565b6102f9565b005b6101326103f7565b60405161013f91906118b3565b60405180910390f35b610162600480360381019061015d91906117f6565b610485565b60405161017a9c9b9a999897969594939291906119e1565b60405180910390f35b61019d600480360381019061019891906117f6565b610713565b6040516101aa9190611c43565b60405180910390f35b6101cd60048036038101906101c8919061178c565b610a12565b005b6101d7610a43565b6040516101e491906117db565b60405180910390f35b61020760048036038101906102029190611dc6565b610a49565b005b610223600480360381019061021e9190611ef9565b610e23565b6040516102309190611f39565b60405180910390f35b610253600480360381019061024e91906117f6565b610ed4565b60405161026b9c9b9a999897969594939291906119e1565b60405180910390f35b61027c611152565b6040516102899190612128565b60405180910390f35b6102ac60048036038101906102a791906117f6565b611484565b6040516102b9919061216b565b60405180910390f35b80600080848152602001908152602001600020600b0160016101000a81548160ff0219169083151502179055505050565b60025481565b6000808281526020019081526020016000206000808201600090556001820160006101000a81549073ffffffffffffffffffffffffffffffffffffffff021916905560028201600061034b9190611600565b6003820160009055600482016000905560058201600090556006820160006103739190611600565b600782016000808201600090556001820160006103909190611600565b600282016000905560038201600090555050600b820160006101000a81549060ff0219169055600b820160016101000a81549060ff0219169055600b820160026101000a81549060ff0219169055600b820160036101000a81549060ff0219169055505050565b60038054610404906121b5565b80601f0160208091040260200160405190810160405280929190818152602001828054610430906121b5565b801561047d5780601f106104525761010080835404028352916020019161047d565b820191906000526020600020905b81548152906001019060200180831161046057829003601f168201915b505050505081565b6004818154811061049557600080fd5b90600052602060002090600c02016000915090508060000154908060010160009054906101000a900473ffffffffffffffffffffffffffffffffffffffff16908060020180546104e4906121b5565b80601f0160208091040260200160405190810160405280929190818152602001828054610510906121b5565b801561055d5780601f106105325761010080835404028352916020019161055d565b820191906000526020600020905b81548152906001019060200180831161054057829003601f168201915b505050505090806003015490806004015490806005015490806006018054610584906121b5565b80601f01602080910402602001604051908101604052809291908181526020018280546105b0906121b5565b80156105fd5780601f106105d2576101008083540402835291602001916105fd565b820191906000526020600020905b8154815290600101906020018083116105e057829003601f168201915b505050505090806007016040518060800160405290816000820154815260200160018201805461062c906121b5565b80601f0160208091040260200160405190810160405280929190818152602001828054610658906121b5565b80156106a55780601f1061067a576101008083540402835291602001916106a5565b820191906000526020600020905b81548152906001019060200180831161068857829003601f168201915b50505050508152602001600282015481526020016003820154815250509080600b0160009054906101000a900460ff169080600b0160019054906101000a900460ff169080600b0160029054906101000a900460ff169080600b0160039054906101000a900460ff1690508c565b61071b611640565b60008083815260200190815260200160002060405180610180016040529081600082015481526020016001820160009054906101000a900473ffffffffffffffffffffffffffffffffffffffff1673ffffffffffffffffffffffffffffffffffffffff1673ffffffffffffffffffffffffffffffffffffffff1681526020016002820180546107a9906121b5565b80601f01602080910402602001604051908101604052809291908181526020018280546107d5906121b5565b80156108225780601f106107f757610100808354040283529160200191610822565b820191906000526020600020905b81548152906001019060200180831161080557829003601f168201915b50505050508152602001600382015481526020016004820154815260200160058201548152602001600682018054610859906121b5565b80601f0160208091040260200160405190810160405280929190818152602001828054610885906121b5565b80156108d25780601f106108a7576101008083540402835291602001916108d2565b820191906000526020600020905b8154815290600101906020018083116108b557829003601f168201915b505050505081526020016007820160405180608001604052908160008201548152602001600182018054610905906121b5565b80601f0160208091040260200160405190810160405280929190818152602001828054610931906121b5565b801561097e5780601f106109535761010080835404028352916020019161097e565b820191906000526020600020905b81548152906001019060200180831161096157829003601f168201915b50505050508152602001600282015481526020016003820154815250508152602001600b820160009054906101000a900460ff16151515158152602001600b820160019054906101000a900460ff16151515158152602001600b820160029054906101000a900460ff16151515158152602001600b820160039054906101000a900460ff1615151515815250509050919050565b80600080848152602001908152602001600020600b0160026101000a81548160ff0219169083151502179055505050565b60015481565b60016000815480929190610a5c90612215565b919050555060026000815480929190610a7490612215565b9190505550600060405180610180016040528060015481526020018b73ffffffffffffffffffffffffffffffffffffffff1681526020018c81526020018a815260200189815260200188815260200187815260200160405180608001604052806002548152602001888152602001600081526020016000815250815260200185151581526020018415158152602001831515815260200160001515815250905060048190806001815401808255809150506001900390600052602060002090600c02016000909190919091506000820151816000015560208201518160010160006101000a81548173ffffffffffffffffffffffffffffffffffffffff021916908373ffffffffffffffffffffffffffffffffffffffff1602179055506040820151816002019081610ba69190612409565b50606082015181600301556080820151816004015560a0820151816005015560c0820151816006019081610bda9190612409565b5060e082015181600701600082015181600001556020820151816001019081610c039190612409565b506040820151816002015560608201518160030155505061010082015181600b0160006101000a81548160ff02191690831515021790555061012082015181600b0160016101000a81548160ff02191690831515021790555061014082015181600b0160026101000a81548160ff02191690831515021790555061016082015181600b0160036101000a81548160ff02191690831515021790555050508060008060015481526020019081526020016000206000820151816000015560208201518160010160006101000a81548173ffffffffffffffffffffffffffffffffffffffff021916908373ffffffffffffffffffffffffffffffffffffffff1602179055506040820151816002019081610d1b9190612409565b50606082015181600301556080820151816004015560a0820151816005015560c0820151816006019081610d4f9190612409565b5060e082015181600701600082015181600001556020820151816001019081610d789190612409565b506040820151816002015560608201518160030155505061010082015181600b0160006101000a81548160ff02191690831515021790555061012082015181600b0160016101000a81548160ff02191690831515021790555061014082015181600b0160026101000a81548160ff02191690831515021790555061016082015181600b0160036101000a81548160ff0219169083151502179055509050505050505050505050505050565b600080600090505b600480549050811015610ec857610e6860048281548110610e4f57610e4e6124db565b5b90600052602060002090600c02016000015485856114c3565b15610eb557600160048281548110610e8357610e826124db565b5b90600052602060002090600c0201600b0160036101000a81548160ff0219169083151502179055506001915050610ece565b8080610ec090612215565b915050610e2b565b50600090505b92915050565b60006020528060005260406000206000915090508060000154908060010160009054906101000a900473ffffffffffffffffffffffffffffffffffffffff1690806002018054610f23906121b5565b80601f0160208091040260200160405190810160405280929190818152602001828054610f4f906121b5565b8015610f9c5780601f10610f7157610100808354040283529160200191610f9c565b820191906000526020600020905b815481529060010190602001808311610f7f57829003601f168201915b505050505090806003015490806004015490806005015490806006018054610fc3906121b5565b80601f0160208091040260200160405190810160405280929190818152602001828054610fef906121b5565b801561103c5780601f106110115761010080835404028352916020019161103c565b820191906000526020600020905b81548152906001019060200180831161101f57829003601f168201915b505050505090806007016040518060800160405290816000820154815260200160018201805461106b906121b5565b80601f0160208091040260200160405190810160405280929190818152602001828054611097906121b5565b80156110e45780601f106110b9576101008083540402835291602001916110e4565b820191906000526020600020905b8154815290600101906020018083116110c757829003601f168201915b50505050508152602001600282015481526020016003820154815250509080600b0160009054906101000a900460ff169080600b0160019054906101000a900460ff169080600b0160029054906101000a900460ff169080600b0160039054906101000a900460ff1690508c565b60606004805480602002602001604051908101604052809291908181526020016000905b8282101561147b57838290600052602060002090600c020160405180610180016040529081600082015481526020016001820160009054906101000a900473ffffffffffffffffffffffffffffffffffffffff1673ffffffffffffffffffffffffffffffffffffffff1673ffffffffffffffffffffffffffffffffffffffff16815260200160028201805461120a906121b5565b80601f0160208091040260200160405190810160405280929190818152602001828054611236906121b5565b80156112835780601f1061125857610100808354040283529160200191611283565b820191906000526020600020905b81548152906001019060200180831161126657829003601f168201915b505050505081526020016003820154815260200160048201548152602001600582015481526020016006820180546112ba906121b5565b80601f01602080910402602001604051908101604052809291908181526020018280546112e6906121b5565b80156113335780601f1061130857610100808354040283529160200191611333565b820191906000526020600020905b81548152906001019060200180831161131657829003601f168201915b505050505081526020016007820160405180608001604052908160008201548152602001600182018054611366906121b5565b80601f0160208091040260200160405190810160405280929190818152602001828054611392906121b5565b80156113df5780601f106113b4576101008083540402835291602001916113df565b820191906000526020600020905b8154815290600101906020018083116113c257829003601f168201915b50505050508152602001600282015481526020016003820154815250508152602001600b820160009054906101000a900460ff16151515158152602001600b820160019054906101000a900460ff16151515158152602001600b820160029054906101000a900460ff16151515158152602001600b820160039054906101000a900460ff16151515158152505081526020019060010190611176565b50505050905090565b600080600083815260200190815260200160002060010160009054906101000a900473ffffffffffffffffffffffffffffffffffffffff169050919050565b6000601260008086815260200190815260200160002060030154101580156114ff57506000808581526020019081526020016000206004015483145b801561151f57506000808581526020019081526020016000206005015482145b80156115b4575060011515600080868152602001908152602001600020600b0160019054906101000a900460ff161515148015611582575060001515600080868152602001908152602001600020600b0160009054906101000a900460ff161515145b806115b3575060011515600080868152602001908152602001600020600b0160009054906101000a900460ff161515145b5b80156115e6575060011515600080868152602001908152602001600020600b0160029054906101000a900460ff161515145b156115f457600190506115f9565b600090505b9392505050565b50805461160c906121b5565b6000825580601f1061161e575061163d565b601f01602090049060005260206000209081019061163c91906116c5565b5b50565b60405180610180016040528060008152602001600073ffffffffffffffffffffffffffffffffffffffff168152602001606081526020016000815260200160008152602001600081526020016060815260200161169b6116e2565b81526020016000151581526020016000151581526020016000151581526020016000151581525090565b5b808211156116de5760008160009055506001016116c6565b5090565b6040518060800160405280600081526020016060815260200160008152602001600081525090565b6000604051905090565b600080fd5b600080fd5b6000819050919050565b6117318161171e565b811461173c57600080fd5b50565b60008135905061174e81611728565b92915050565b60008115159050919050565b61176981611754565b811461177457600080fd5b50565b60008135905061178681611760565b92915050565b600080604083850312156117a3576117a2611714565b5b60006117b18582860161173f565b92505060206117c285828601611777565b9150509250929050565b6117d58161171e565b82525050565b60006020820190506117f060008301846117cc565b92915050565b60006020828403121561180c5761180b611714565b5b600061181a8482850161173f565b91505092915050565b600081519050919050565b600082825260208201905092915050565b60005b8381101561185d578082015181840152602081019050611842565b60008484015250505050565b6000601f19601f8301169050919050565b600061188582611823565b61188f818561182e565b935061189f81856020860161183f565b6118a881611869565b840191505092915050565b600060208201905081810360008301526118cd818461187a565b905092915050565b600073ffffffffffffffffffffffffffffffffffffffff82169050919050565b6000611900826118d5565b9050919050565b611910816118f5565b82525050565b61191f8161171e565b82525050565b600082825260208201905092915050565b600061194182611823565b61194b8185611925565b935061195b81856020860161183f565b61196481611869565b840191505092915050565b60006080830160008301516119876000860182611916565b506020830151848203602086015261199f8282611936565b91505060408301516119b46040860182611916565b5060608301516119c76060860182611916565b508091505092915050565b6119db81611754565b82525050565b6000610180820190506119f7600083018f6117cc565b611a04602083018e611907565b8181036040830152611a16818d61187a565b9050611a25606083018c6117cc565b611a32608083018b6117cc565b611a3f60a083018a6117cc565b81810360c0830152611a51818961187a565b905081810360e0830152611a65818861196f565b9050611a756101008301876119d2565b611a836101208301866119d2565b611a916101408301856119d2565b611a9f6101608301846119d2565b9d9c50505050505050505050505050565b611ab9816118f5565b82525050565b6000608083016000830151611ad76000860182611916565b5060208301518482036020860152611aef8282611936565b9150506040830151611b046040860182611916565b506060830151611b176060860182611916565b508091505092915050565b611b2b81611754565b82525050565b600061018083016000830151611b4a6000860182611916565b506020830151611b5d6020860182611ab0565b5060408301518482036040860152611b758282611936565b9150506060830151611b8a6060860182611916565b506080830151611b9d6080860182611916565b5060a0830151611bb060a0860182611916565b5060c083015184820360c0860152611bc88282611936565b91505060e083015184820360e0860152611be28282611abf565b915050610100830151611bf9610100860182611b22565b50610120830151611c0e610120860182611b22565b50610140830151611c23610140860182611b22565b50610160830151611c38610160860182611b22565b508091505092915050565b60006020820190508181036000830152611c5d8184611b31565b905092915050565b600080fd5b600080fd5b7f4e487b7100000000000000000000000000000000000000000000000000000000600052604160045260246000fd5b611ca782611869565b810181811067ffffffffffffffff82111715611cc657611cc5611c6f565b5b80604052505050565b6000611cd961170a565b9050611ce58282611c9e565b919050565b600067ffffffffffffffff821115611d0557611d04611c6f565b5b611d0e82611869565b9050602081019050919050565b82818337600083830152505050565b6000611d3d611d3884611cea565b611ccf565b905082815260208101848484011115611d5957611d58611c6a565b5b611d64848285611d1b565b509392505050565b600082601f830112611d8157611d80611c65565b5b8135611d91848260208601611d2a565b91505092915050565b611da3816118f5565b8114611dae57600080fd5b50565b600081359050611dc081611d9a565b92915050565b6000806000806000806000806000806101408b8d031215611dea57611de9611714565b5b60008b013567ffffffffffffffff811115611e0857611e07611719565b5b611e148d828e01611d6c565b9a50506020611e258d828e01611db1565b9950506040611e368d828e0161173f565b9850506060611e478d828e0161173f565b9750506080611e588d828e0161173f565b96505060a08b013567ffffffffffffffff811115611e7957611e78611719565b5b611e858d828e01611d6c565b95505060c08b013567ffffffffffffffff811115611ea657611ea5611719565b5b611eb28d828e01611d6c565b94505060e0611ec38d828e01611777565b935050610100611ed58d828e01611777565b925050610120611ee78d828e01611777565b9150509295989b9194979a5092959850565b60008060408385031215611f1057611f0f611714565b5b6000611f1e8582860161173f565b9250506020611f2f8582860161173f565b9150509250929050565b6000602082019050611f4e60008301846119d2565b92915050565b600081519050919050565b600082825260208201905092915050565b6000819050602082019050919050565b600061018083016000830151611f996000860182611916565b506020830151611fac6020860182611ab0565b5060408301518482036040860152611fc48282611936565b9150506060830151611fd96060860182611916565b506080830151611fec6080860182611916565b5060a0830151611fff60a0860182611916565b5060c083015184820360c08601526120178282611936565b91505060e083015184820360e08601526120318282611abf565b915050610100830151612048610100860182611b22565b5061012083015161205d610120860182611b22565b50610140830151612072610140860182611b22565b50610160830151612087610160860182611b22565b508091505092915050565b600061209e8383611f80565b905092915050565b6000602082019050919050565b60006120be82611f54565b6120c88185611f5f565b9350836020820285016120da85611f70565b8060005b8581101561211657848403895281516120f78582612092565b9450612102836120a6565b925060208a019950506001810190506120de565b50829750879550505050505092915050565b6000602082019050818103600083015261214281846120b3565b905092915050565b6000612155826118d5565b9050919050565b6121658161214a565b82525050565b6000602082019050612180600083018461215c565b92915050565b7f4e487b7100000000000000000000000000000000000000000000000000000000600052602260045260246000fd5b600060028204905060018216806121cd57607f821691505b6020821081036121e0576121df612186565b5b50919050565b7f4e487b7100000000000000000000000000000000000000000000000000000000600052601160045260246000fd5b60006122208261171e565b91507fffffffffffffffffffffffffffffffffffffffffffffffffffffffffffffffff8203612252576122516121e6565b5b600182019050919050565b60008190508160005260206000209050919050565b60006020601f8301049050919050565b600082821b905092915050565b6000600883026122bf7fffffffffffffffffffffffffffffffffffffffffffffffffffffffffffffffff82612282565b6122c98683612282565b95508019841693508086168417925050509392505050565b6000819050919050565b60006123066123016122fc8461171e565b6122e1565b61171e565b9050919050565b6000819050919050565b612320836122eb565b61233461232c8261230d565b84845461228f565b825550505050565b600090565b61234961233c565b612354818484612317565b505050565b5b818110156123785761236d600082612341565b60018101905061235a565b5050565b601f8211156123bd5761238e8161225d565b61239784612272565b810160208510156123a6578190505b6123ba6123b285612272565b830182612359565b50505b505050565b600082821c905092915050565b60006123e0600019846008026123c2565b1980831691505092915050565b60006123f983836123cf565b9150826002028217905092915050565b61241282611823565b67ffffffffffffffff81111561242b5761242a611c6f565b5b61243582546121b5565b61244082828561237c565b600060209050601f8311600181146124735760008415612461578287015190505b61246b85826123ed565b8655506124d3565b601f1984166124818661225d565b60005b828110156124a957848901518255600182019150602085019450602081019050612484565b868310156124c657848901516124c2601f8916826123cf565b8355505b6001600288020188555050505b505050505050565b7f4e487b7100000000000000000000000000000000000000000000000000000000600052603260045260246000fdfea26469706673582212202b02737d1a9cdf0205e5a448a0141ff3197581cc7d4e44ab7d29119c67712a1964736f6c63430008110033",
  "immutableReferences": {},
  "source": "//SPDX-License-Identifier: GPL-3.0\r\n\r\npragma solidity ^0.8.0;\r\n\r\n\r\nstruct Donor{\r\n        uint id;\r\n        address payable store;\r\n        string name;\r\n        uint age;\r\n        uint contact_number;\r\n        uint verification_number; //This is what we will use for PAN, Passport etc.\r\n        string blood_group;\r\n        Organ organ_type;\r\n        bool status; //1 if alive 0 if dead;\r\n        bool death_contract;// This is for the death contract of the patient\r\n        bool isMedicaallyVerified;// Boolean factor regarding medical history being administered by doctors\r\n        bool Verified;\r\n    }\r\n\r\nstruct Organ{\r\n    uint organ_Id;\r\n    string organ_type;\r\n    uint donor_Id;\r\n    uint recipient_Id;\r\n}\r\n\r\nstruct Recipient {\r\n        // Fields to store recipient information, such as name, organ type needed, and contact information.\r\n        uint id;\r\n        address store;\r\n        string name;\r\n        uint age;\r\n        string organTypeNeeded;\r\n        uint contactInfo;\r\n        uint verification_number;\r\n        string blood_group;\r\n        bool isMedicaallyVerified;\r\n    }\r\nstruct Match\r\n{\r\n    uint id;\r\n    Organ organ;\r\n    uint donor_id;\r\n    uint recipient_id;\r\n    address payable donor_address;\r\n    address recipient_address;\r\n}\r\n// contract OrganDirectory{\r\n//     mapping(uint=> Organ) private organ_list;\r\n    \r\n//     uint public organ_count;\r\n\r\n//     function addOrgan(string memory organ_type, uint donor_Id, uint recipient_Id, uint price) public{\r\n//         organ_count++;\r\n//         Organ memory new_organ=Organ(organ_count, organ_type, donor_Id, recipient_Id, price);\r\n//         organ_list[organ_count]=new_organ;\r\n//     }\r\n\r\n//     function removeOrgan(uint id) public{\r\n//         delete organ_list[id];\r\n//     }\r\n\r\n//     function getOrgan(uint id) public view returns (Organ memory){\r\n//         return organ_list[id];\r\n//     }\r\n// }\r\n\r\n\r\n\r\ncontract DonorDirectory{\r\n    mapping(uint=> Donor) public donor_list;\r\n    \r\n    uint public donor_count;\r\n    uint public organ_count;\r\n    string public location;\r\n    Donor[] public donor_array;\r\n\r\n    constructor(string memory place){\r\n        location=place;\r\n    } \r\n\r\n    function addDonor(string memory name, address payable store, uint age, uint contact_number, uint verification_number, string memory blood_group, string memory organ_type, bool status, bool death_contract, bool isMedicaallyVerified) public{\r\n        donor_count++;\r\n        organ_count++;\r\n        Donor memory new_donor= Donor(donor_count, store, name, age, contact_number, verification_number, blood_group, Organ(organ_count, organ_type, 0, 0), status, death_contract, isMedicaallyVerified, false);\r\n        donor_array.push(new_donor);\r\n        donor_list[donor_count]=new_donor;\r\n    }\r\n\r\n    function updateMedicalRecords(uint id,bool isMedicaallyVerified) public{\r\n        donor_list[id].isMedicaallyVerified=isMedicaallyVerified;\r\n    }\r\n    function updateDeathContract(uint id, bool death_contract) public{\r\n        donor_list[id].death_contract=death_contract;\r\n    }\r\n\r\n    function isVerified(uint id, uint contact_number, uint verification_number) private view returns(bool){\r\n        if(donor_list[id].age>=18 && contact_number==donor_list[id].contact_number && verification_number==donor_list[id].verification_number && ((donor_list[id].death_contract==true && donor_list[id].status==false) || (donor_list[id].status==true)) && donor_list[id].isMedicaallyVerified==true){\r\n\r\n            return true;\r\n        }\r\n        return false;\r\n    }\r\n\r\n    function removeDonor(uint id) public{\r\n        delete donor_list[id];\r\n    }\r\n\r\n    function getDonor(uint id) public view returns(Donor memory){\r\n        return (donor_list[id]);\r\n    }\r\n\r\n    function getDonorId(uint id) public view returns(address){\r\n        return donor_list[id].store;\r\n    }\r\n\r\n    function siteVerification(uint contact_number, uint verification_number) public returns(bool){\r\n        for(uint i=0; i<donor_array.length; i++){\r\n            if(isVerified(donor_array[i].id, contact_number, verification_number)){\r\n                donor_array[i].Verified=true;\r\n                return true;\r\n            }\r\n        }\r\n        return false;\r\n    }\r\n\r\n    function getArray() public view returns(Donor[] memory){\r\n        return donor_array;\r\n    }\r\n}\r\n\r\ncontract RecipientReg{\r\n    mapping(uint=> Recipient) public recipient_list;\r\n\r\n    uint public recipient_count;\r\n    Recipient[] recipient_array;\r\n\r\n\r\n    function addRecipient(string memory name, address store, uint age, string memory organTypeNeeded, uint contactInfo, uint verification_number, string memory blood_group, bool isMedicaallyVerified) public{\r\n        recipient_count++;\r\n        Recipient memory new_recipient=Recipient(recipient_count, store, name, age, organTypeNeeded, contactInfo, verification_number, blood_group, isMedicaallyVerified);\r\n        recipient_list[recipient_count]=new_recipient;\r\n        recipient_array.push(new_recipient);\r\n    }\r\n\r\n    function updateMedicalRecords(uint id, bool isMedicaallyVerified) public{\r\n        recipient_list[id].isMedicaallyVerified=isMedicaallyVerified;\r\n    }\r\n\r\n    function removeRecipient(uint id) public{\r\n        delete recipient_list[id];\r\n    }\r\n    function getRecipient(uint id) public view returns(Recipient memory){\r\n        return recipient_list[id];\r\n    }\r\n\r\n    function getRecipientId(uint id) public view returns(address){\r\n        return recipient_list[id].store;\r\n    }\r\n\r\n    function payEther(uint id) public view{\r\n        recipient_list[id].store.balance-(1 ether);\r\n    }\r\n\r\n    function getArray() public view returns(Recipient[] memory){\r\n        return recipient_array;\r\n    }\r\n}\r\n\r\ncontract MatchMaking\r\n{\r\n    Match[] public match_array;\r\n    uint match_count;\r\n\r\n    function searchAndMatch(Donor[] memory donor_array, Recipient memory recipient) public{\r\n        uint donor_id;\r\n        for(uint i=0; i<donor_array.length; i++){\r\n            if(keccak256(abi.encodePacked(donor_array[i].organ_type.organ_type))==keccak256(abi.encodePacked(recipient.organTypeNeeded)) && keccak256(abi.encodePacked(recipient.blood_group))== keccak256(abi.encodePacked(donor_array[i].blood_group)) && donor_array[i].Verified){\r\n                donor_id=i;\r\n                break;\r\n            }\r\n        }\r\n\r\n        if(donor_id!=0 && recipient.id!=0 && recipient.isMedicaallyVerified){\r\n            donor_array[donor_id].organ_type.recipient_Id=recipient.id;\r\n            match_count++;\r\n            Match memory new_match=Match(match_count, donor_array[donor_id].organ_type, donor_array[donor_id].id, recipient.id, donor_array[donor_id].store, recipient.store);\r\n            match_array.push(new_match);\r\n        }\r\n    }\r\n\r\n    function getArray() public view returns(Match[] memory){\r\n        return match_array;\r\n    }\r\n    function getRecipientAddress(uint id) public view returns(address){\r\n        return match_array[id-1].recipient_address;\r\n    }\r\n    function getDonorAddress(uint id) public view returns(address payable){\r\n        return match_array[id-1].donor_address;\r\n    }\r\n}\r\n\r\n",
  "sourcePath": "C:\\Users\\LENOVO\\OneDrive\\Documents\\Survive\\chain\\contracts\\Hackathon.sol",
  "compiler": {
    "name": "solc",
    "version": "0.8.17+commit.8df45f5f.Emscripten.clang"
  },
  "schemaVersion": "3.4.11",
  "updatedAt": "2023-01-07T12:19:09.253Z",
  "devdoc": {
    "kind": "dev",
    "methods": {},
    "version": 1
  },
  "userdoc": {
    "kind": "user",
    "methods": {},
    "version": 1
  }
}