{
  "contractName": "Hackathon_Two",
  "abi": [
    {
      "inputs": [],
      "name": "recipient_count",
      "outputs": [
        {
          "internalType": "uint256",
          "name": "",
          "type": "uint256"
        }
      ],
      "stateMutability": "view",
      "type": "function"
    },
    {
      "inputs": [
        {
          "internalType": "uint256",
          "name": "",
          "type": "uint256"
        }
      ],
      "name": "recipient_list",
      "outputs": [
        {
          "internalType": "uint256",
          "name": "id",
          "type": "uint256"
        },
        {
          "internalType": "address",
          "name": "store",
          "type": "address"
        },
        {
          "internalType": "string",
          "name": "name",
          "type": "string"
        },
        {
          "internalType": "uint256",
          "name": "age",
          "type": "uint256"
        },
        {
          "internalType": "string",
          "name": "organTypeNeeded",
          "type": "string"
        },
        {
          "internalType": "uint256",
          "name": "contactInfo",
          "type": "uint256"
        },
        {
          "internalType": "uint256",
          "name": "verification_number",
          "type": "uint256"
        },
        {
          "internalType": "string",
          "name": "blood_group",
          "type": "string"
        },
        {
          "internalType": "bool",
          "name": "isMedicaallyVerified",
          "type": "bool"
        }
      ],
      "stateMutability": "view",
      "type": "function"
    },
    {
      "inputs": [
        {
          "internalType": "string",
          "name": "name",
          "type": "string"
        },
        {
          "internalType": "address",
          "name": "store",
          "type": "address"
        },
        {
          "internalType": "uint256",
          "name": "age",
          "type": "uint256"
        },
        {
          "internalType": "string",
          "name": "organTypeNeeded",
          "type": "string"
        },
        {
          "internalType": "uint256",
          "name": "contactInfo",
          "type": "uint256"
        },
        {
          "internalType": "uint256",
          "name": "verification_number",
          "type": "uint256"
        },
        {
          "internalType": "string",
          "name": "blood_group",
          "type": "string"
        },
        {
          "internalType": "bool",
          "name": "isMedicaallyVerified",
          "type": "bool"
        }
      ],
      "name": "addRecipient",
      "outputs": [],
      "stateMutability": "nonpayable",
      "type": "function"
    },
    {
      "inputs": [
        {
          "internalType": "uint256",
          "name": "id",
          "type": "uint256"
        },
        {
          "internalType": "bool",
          "name": "isMedicaallyVerified",
          "type": "bool"
        }
      ],
      "name": "updateMedicalRecords",
      "outputs": [],
      "stateMutability": "nonpayable",
      "type": "function"
    },
    {
      "inputs": [
        {
          "internalType": "uint256",
          "name": "id",
          "type": "uint256"
        }
      ],
      "name": "removeRecipient",
      "outputs": [],
      "stateMutability": "nonpayable",
      "type": "function"
    },
    {
      "inputs": [
        {
          "internalType": "uint256",
          "name": "id",
          "type": "uint256"
        }
      ],
      "name": "getRecipient",
      "outputs": [
        {
          "components": [
            {
              "internalType": "uint256",
              "name": "id",
              "type": "uint256"
            },
            {
              "internalType": "address",
              "name": "store",
              "type": "address"
            },
            {
              "internalType": "string",
              "name": "name",
              "type": "string"
            },
            {
              "internalType": "uint256",
              "name": "age",
              "type": "uint256"
            },
            {
              "internalType": "string",
              "name": "organTypeNeeded",
              "type": "string"
            },
            {
              "internalType": "uint256",
              "name": "contactInfo",
              "type": "uint256"
            },
            {
              "internalType": "uint256",
              "name": "verification_number",
              "type": "uint256"
            },
            {
              "internalType": "string",
              "name": "blood_group",
              "type": "string"
            },
            {
              "internalType": "bool",
              "name": "isMedicaallyVerified",
              "type": "bool"
            }
          ],
          "internalType": "struct Recipient",
          "name": "",
          "type": "tuple"
        }
      ],
      "stateMutability": "view",
      "type": "function"
    },
    {
      "inputs": [
        {
          "internalType": "uint256",
          "name": "id",
          "type": "uint256"
        }
      ],
      "name": "getRecipientId",
      "outputs": [
        {
          "internalType": "address",
          "name": "",
          "type": "address"
        }
      ],
      "stateMutability": "view",
      "type": "function"
    },
    {
      "inputs": [
        {
          "internalType": "uint256",
          "name": "id",
          "type": "uint256"
        }
      ],
      "name": "payEther",
      "outputs": [],
      "stateMutability": "view",
      "type": "function"
    },
    {
      "inputs": [],
      "name": "getArray",
      "outputs": [
        {
          "components": [
            {
              "internalType": "uint256",
              "name": "id",
              "type": "uint256"
            },
            {
              "internalType": "address",
              "name": "store",
              "type": "address"
            },
            {
              "internalType": "string",
              "name": "name",
              "type": "string"
            },
            {
              "internalType": "uint256",
              "name": "age",
              "type": "uint256"
            },
            {
              "internalType": "string",
              "name": "organTypeNeeded",
              "type": "string"
            },
            {
              "internalType": "uint256",
              "name": "contactInfo",
              "type": "uint256"
            },
            {
              "internalType": "uint256",
              "name": "verification_number",
              "type": "uint256"
            },
            {
              "internalType": "string",
              "name": "blood_group",
              "type": "string"
            },
            {
              "internalType": "bool",
              "name": "isMedicaallyVerified",
              "type": "bool"
            }
          ],
          "internalType": "struct Recipient[]",
          "name": "",
          "type": "tuple[]"
        }
      ],
      "stateMutability": "view",
      "type": "function"
    }
  ],
  "bytecode": "0x608060405234801561001057600080fd5b506119c6806100206000396000f3fe608060405234801561001057600080fd5b50600436106100935760003560e01c80636d0cee75116100665780636d0cee7514610138578063823a88fa146101685780638e69e25514610184578063bffc0a98146101a0578063d504ea1d146101be57610093565b8063098ef11114610098578063130f8546146100c857806318b749c4146100e45780634afc7b8714610100575b600080fd5b6100b260048036038101906100ad9190610e0d565b6101dc565b6040516100bf9190610e7b565b60405180910390f35b6100e260048036038101906100dd9190611040565b61021b565b005b6100fe60048036038101906100f99190610e0d565b610486565b005b61011a60048036038101906101159190610e0d565b6104ea565b60405161012f999897969594939291906111e7565b60405180910390f35b610152600480360381019061014d9190610e0d565b6106fd565b60405161015f91906113d3565b60405180910390f35b610182600480360381019061017d91906113f5565b610979565b005b61019e60048036038101906101999190610e0d565b6109aa565b005b6101a8610a4d565b6040516101b59190611435565b60405180910390f35b6101c6610a53565b6040516101d391906115e5565b60405180910390f35b600080600083815260200190815260200160002060010160009054906101000a900473ffffffffffffffffffffffffffffffffffffffff169050919050565b6001600081548092919061022e90611636565b9190505550600060405180610120016040528060015481526020018973ffffffffffffffffffffffffffffffffffffffff1681526020018a815260200188815260200187815260200186815260200185815260200184815260200183151581525090508060008060015481526020019081526020016000206000820151816000015560208201518160010160006101000a81548173ffffffffffffffffffffffffffffffffffffffff021916908373ffffffffffffffffffffffffffffffffffffffff160217905550604082015181600201908161030c919061188a565b5060608201518160030155608082015181600401908161032c919061188a565b5060a0820151816005015560c0820151816006015560e0820151816007019081610356919061188a565b506101008201518160080160006101000a81548160ff02191690831515021790555090505060028190806001815401808255809150506001900390600052602060002090600902016000909190919091506000820151816000015560208201518160010160006101000a81548173ffffffffffffffffffffffffffffffffffffffff021916908373ffffffffffffffffffffffffffffffffffffffff160217905550604082015181600201908161040d919061188a565b5060608201518160030155608082015181600401908161042d919061188a565b5060a0820151816005015560c0820151816006015560e0820151816007019081610457919061188a565b506101008201518160080160006101000a81548160ff0219169083151502179055505050505050505050505050565b670de0b6b3a764000060008083815260200190815260200160002060010160009054906101000a900473ffffffffffffffffffffffffffffffffffffffff1673ffffffffffffffffffffffffffffffffffffffff16316104e6919061195c565b5050565b60006020528060005260406000206000915090508060000154908060010160009054906101000a900473ffffffffffffffffffffffffffffffffffffffff1690806002018054610539906116ad565b80601f0160208091040260200160405190810160405280929190818152602001828054610565906116ad565b80156105b25780601f10610587576101008083540402835291602001916105b2565b820191906000526020600020905b81548152906001019060200180831161059557829003601f168201915b5050505050908060030154908060040180546105cd906116ad565b80601f01602080910402602001604051908101604052809291908181526020018280546105f9906116ad565b80156106465780601f1061061b57610100808354040283529160200191610646565b820191906000526020600020905b81548152906001019060200180831161062957829003601f168201915b505050505090806005015490806006015490806007018054610667906116ad565b80601f0160208091040260200160405190810160405280929190818152602001828054610693906116ad565b80156106e05780601f106106b5576101008083540402835291602001916106e0565b820191906000526020600020905b8154815290600101906020018083116106c357829003601f168201915b5050505050908060080160009054906101000a900460ff16905089565b610705610d02565b60008083815260200190815260200160002060405180610120016040529081600082015481526020016001820160009054906101000a900473ffffffffffffffffffffffffffffffffffffffff1673ffffffffffffffffffffffffffffffffffffffff1673ffffffffffffffffffffffffffffffffffffffff168152602001600282018054610793906116ad565b80601f01602080910402602001604051908101604052809291908181526020018280546107bf906116ad565b801561080c5780601f106107e15761010080835404028352916020019161080c565b820191906000526020600020905b8154815290600101906020018083116107ef57829003601f168201915b505050505081526020016003820154815260200160048201805461082f906116ad565b80601f016020809104026020016040519081016040528092919081815260200182805461085b906116ad565b80156108a85780601f1061087d576101008083540402835291602001916108a8565b820191906000526020600020905b81548152906001019060200180831161088b57829003601f168201915b5050505050815260200160058201548152602001600682015481526020016007820180546108d5906116ad565b80601f0160208091040260200160405190810160405280929190818152602001828054610901906116ad565b801561094e5780601f106109235761010080835404028352916020019161094e565b820191906000526020600020905b81548152906001019060200180831161093157829003601f168201915b505050505081526020016008820160009054906101000a900460ff1615151515815250509050919050565b8060008084815260200190815260200160002060080160006101000a81548160ff0219169083151502179055505050565b6000808281526020019081526020016000206000808201600090556001820160006101000a81549073ffffffffffffffffffffffffffffffffffffffff02191690556002820160006109fc9190610d66565b6003820160009055600482016000610a149190610d66565b60058201600090556006820160009055600782016000610a349190610d66565b6008820160006101000a81549060ff0219169055505050565b60015481565b60606002805480602002602001604051908101604052809291908181526020016000905b82821015610cf9578382906000526020600020906009020160405180610120016040529081600082015481526020016001820160009054906101000a900473ffffffffffffffffffffffffffffffffffffffff1673ffffffffffffffffffffffffffffffffffffffff1673ffffffffffffffffffffffffffffffffffffffff168152602001600282018054610b0b906116ad565b80601f0160208091040260200160405190810160405280929190818152602001828054610b37906116ad565b8015610b845780601f10610b5957610100808354040283529160200191610b84565b820191906000526020600020905b815481529060010190602001808311610b6757829003601f168201915b5050505050815260200160038201548152602001600482018054610ba7906116ad565b80601f0160208091040260200160405190810160405280929190818152602001828054610bd3906116ad565b8015610c205780601f10610bf557610100808354040283529160200191610c20565b820191906000526020600020905b815481529060010190602001808311610c0357829003601f168201915b505050505081526020016005820154815260200160068201548152602001600782018054610c4d906116ad565b80601f0160208091040260200160405190810160405280929190818152602001828054610c79906116ad565b8015610cc65780601f10610c9b57610100808354040283529160200191610cc6565b820191906000526020600020905b815481529060010190602001808311610ca957829003601f168201915b505050505081526020016008820160009054906101000a900460ff16151515158152505081526020019060010190610a77565b50505050905090565b60405180610120016040528060008152602001600073ffffffffffffffffffffffffffffffffffffffff1681526020016060815260200160008152602001606081526020016000815260200160008152602001606081526020016000151581525090565b508054610d72906116ad565b6000825580601f10610d845750610da3565b601f016020900490600052602060002090810190610da29190610da6565b5b50565b5b80821115610dbf576000816000905550600101610da7565b5090565b6000604051905090565b600080fd5b600080fd5b6000819050919050565b610dea81610dd7565b8114610df557600080fd5b50565b600081359050610e0781610de1565b92915050565b600060208284031215610e2357610e22610dcd565b5b6000610e3184828501610df8565b91505092915050565b600073ffffffffffffffffffffffffffffffffffffffff82169050919050565b6000610e6582610e3a565b9050919050565b610e7581610e5a565b82525050565b6000602082019050610e906000830184610e6c565b92915050565b600080fd5b600080fd5b6000601f19601f8301169050919050565b7f4e487b7100000000000000000000000000000000000000000000000000000000600052604160045260246000fd5b610ee982610ea0565b810181811067ffffffffffffffff82111715610f0857610f07610eb1565b5b80604052505050565b6000610f1b610dc3565b9050610f278282610ee0565b919050565b600067ffffffffffffffff821115610f4757610f46610eb1565b5b610f5082610ea0565b9050602081019050919050565b82818337600083830152505050565b6000610f7f610f7a84610f2c565b610f11565b905082815260208101848484011115610f9b57610f9a610e9b565b5b610fa6848285610f5d565b509392505050565b600082601f830112610fc357610fc2610e96565b5b8135610fd3848260208601610f6c565b91505092915050565b610fe581610e5a565b8114610ff057600080fd5b50565b60008135905061100281610fdc565b92915050565b60008115159050919050565b61101d81611008565b811461102857600080fd5b50565b60008135905061103a81611014565b92915050565b600080600080600080600080610100898b03121561106157611060610dcd565b5b600089013567ffffffffffffffff81111561107f5761107e610dd2565b5b61108b8b828c01610fae565b985050602061109c8b828c01610ff3565b97505060406110ad8b828c01610df8565b965050606089013567ffffffffffffffff8111156110ce576110cd610dd2565b5b6110da8b828c01610fae565b95505060806110eb8b828c01610df8565b94505060a06110fc8b828c01610df8565b93505060c089013567ffffffffffffffff81111561111d5761111c610dd2565b5b6111298b828c01610fae565b92505060e061113a8b828c0161102b565b9150509295985092959890939650565b61115381610dd7565b82525050565b600081519050919050565b600082825260208201905092915050565b60005b83811015611193578082015181840152602081019050611178565b60008484015250505050565b60006111aa82611159565b6111b48185611164565b93506111c4818560208601611175565b6111cd81610ea0565b840191505092915050565b6111e181611008565b82525050565b6000610120820190506111fd600083018c61114a565b61120a602083018b610e6c565b818103604083015261121c818a61119f565b905061122b606083018961114a565b818103608083015261123d818861119f565b905061124c60a083018761114a565b61125960c083018661114a565b81810360e083015261126b818561119f565b905061127b6101008301846111d8565b9a9950505050505050505050565b61129281610dd7565b82525050565b6112a181610e5a565b82525050565b600082825260208201905092915050565b60006112c382611159565b6112cd81856112a7565b93506112dd818560208601611175565b6112e681610ea0565b840191505092915050565b6112fa81611008565b82525050565b6000610120830160008301516113196000860182611289565b50602083015161132c6020860182611298565b506040830151848203604086015261134482826112b8565b91505060608301516113596060860182611289565b506080830151848203608086015261137182826112b8565b91505060a083015161138660a0860182611289565b5060c083015161139960c0860182611289565b5060e083015184820360e08601526113b182826112b8565b9150506101008301516113c86101008601826112f1565b508091505092915050565b600060208201905081810360008301526113ed8184611300565b905092915050565b6000806040838503121561140c5761140b610dcd565b5b600061141a85828601610df8565b925050602061142b8582860161102b565b9150509250929050565b600060208201905061144a600083018461114a565b92915050565b600081519050919050565b600082825260208201905092915050565b6000819050602082019050919050565b6000610120830160008301516114956000860182611289565b5060208301516114a86020860182611298565b50604083015184820360408601526114c082826112b8565b91505060608301516114d56060860182611289565b50608083015184820360808601526114ed82826112b8565b91505060a083015161150260a0860182611289565b5060c083015161151560c0860182611289565b5060e083015184820360e086015261152d82826112b8565b9150506101008301516115446101008601826112f1565b508091505092915050565b600061155b838361147c565b905092915050565b6000602082019050919050565b600061157b82611450565b611585818561145b565b9350836020820285016115978561146c565b8060005b858110156115d357848403895281516115b4858261154f565b94506115bf83611563565b925060208a0199505060018101905061159b565b50829750879550505050505092915050565b600060208201905081810360008301526115ff8184611570565b905092915050565b7f4e487b7100000000000000000000000000000000000000000000000000000000600052601160045260246000fd5b600061164182610dd7565b91507fffffffffffffffffffffffffffffffffffffffffffffffffffffffffffffffff820361167357611672611607565b5b600182019050919050565b7f4e487b7100000000000000000000000000000000000000000000000000000000600052602260045260246000fd5b600060028204905060018216806116c557607f821691505b6020821081036116d8576116d761167e565b5b50919050565b60008190508160005260206000209050919050565b60006020601f8301049050919050565b600082821b905092915050565b6000600883026117407fffffffffffffffffffffffffffffffffffffffffffffffffffffffffffffffff82611703565b61174a8683611703565b95508019841693508086168417925050509392505050565b6000819050919050565b600061178761178261177d84610dd7565b611762565b610dd7565b9050919050565b6000819050919050565b6117a18361176c565b6117b56117ad8261178e565b848454611710565b825550505050565b600090565b6117ca6117bd565b6117d5818484611798565b505050565b5b818110156117f9576117ee6000826117c2565b6001810190506117db565b5050565b601f82111561183e5761180f816116de565b611818846116f3565b81016020851015611827578190505b61183b611833856116f3565b8301826117da565b50505b505050565b600082821c905092915050565b600061186160001984600802611843565b1980831691505092915050565b600061187a8383611850565b9150826002028217905092915050565b61189382611159565b67ffffffffffffffff8111156118ac576118ab610eb1565b5b6118b682546116ad565b6118c18282856117fd565b600060209050601f8311600181146118f457600084156118e2578287015190505b6118ec858261186e565b865550611954565b601f198416611902866116de565b60005b8281101561192a57848901518255600182019150602085019450602081019050611905565b868310156119475784890151611943601f891682611850565b8355505b6001600288020188555050505b505050505050565b600061196782610dd7565b915061197283610dd7565b925082820390508181111561198a57611989611607565b5b9291505056fea264697066735822122012f8f3b331f51aa9e0143f6a21ee9385e73234a8ddb501388528421697f2db9164736f6c63430008110033",
  "immutableReferences": {},
  "source": "//SPDX-License-Identifier: GPL-3.0\r\n\r\npragma solidity >=0.5.0 <0.9.0;\r\n\r\nimport \"./hackathon.sol\";\r\n\r\ncontract Hackathon_Two{\r\n    mapping(uint=> Recipient) public recipient_list;\r\n\r\n    uint public recipient_count;\r\n    Recipient[] recipient_array;\r\n\r\n\r\n    function addRecipient(string memory name, address store, uint age, string memory organTypeNeeded, uint contactInfo, uint verification_number, string memory blood_group, bool isMedicaallyVerified) public{\r\n        recipient_count++;\r\n        Recipient memory new_recipient=Recipient(recipient_count, store, name, age, organTypeNeeded, contactInfo, verification_number, blood_group, isMedicaallyVerified);\r\n        recipient_list[recipient_count]=new_recipient;\r\n        recipient_array.push(new_recipient);\r\n    }\r\n\r\n    function updateMedicalRecords(uint id, bool isMedicaallyVerified) public{\r\n        recipient_list[id].isMedicaallyVerified=isMedicaallyVerified;\r\n    }\r\n\r\n    function removeRecipient(uint id) public{\r\n        delete recipient_list[id];\r\n    }\r\n    function getRecipient(uint id) public view returns(Recipient memory){\r\n        return recipient_list[id];\r\n    }\r\n\r\n    function getRecipientId(uint id) public view returns(address){\r\n        return recipient_list[id].store;\r\n    }\r\n\r\n    function payEther(uint id) public view{\r\n        recipient_list[id].store.balance-(1 ether);\r\n    }\r\n\r\n    function getArray() public view returns(Recipient[] memory){\r\n        return recipient_array;\r\n    }\r\n}",
  "sourcePath": "C:\\Users\\LENOVO\\OneDrive\\Documents\\Survive\\chain\\contracts\\Hackathon_Two.sol",
  "compiler": {
    "name": "solc",
    "version": "0.8.17+commit.8df45f5f.Emscripten.clang"
  },
  "schemaVersion": "3.4.11",
  "updatedAt": "2023-01-07T17:39:06.849Z",
  "devdoc": {
    "kind": "dev",
    "methods": {},
    "version": 1
  },
  "userdoc": {
    "kind": "user",
    "methods": {},
    "version": 1
  }
}