{
  "contractName": "MatchMaking",
  "abi": [
    {
      "inputs": [
        {
          "internalType": "uint256",
          "name": "",
          "type": "uint256"
        }
      ],
      "name": "match_array",
      "outputs": [
        {
          "internalType": "uint256",
          "name": "id",
          "type": "uint256"
        },
        {
          "components": [
            {
              "internalType": "uint256",
              "name": "organ_Id",
              "type": "uint256"
            },
            {
              "internalType": "string",
              "name": "organ_type",
              "type": "string"
            },
            {
              "internalType": "uint256",
              "name": "donor_Id",
              "type": "uint256"
            },
            {
              "internalType": "uint256",
              "name": "recipient_Id",
              "type": "uint256"
            }
          ],
          "internalType": "struct Organ",
          "name": "organ",
          "type": "tuple"
        },
        {
          "internalType": "uint256",
          "name": "donor_id",
          "type": "uint256"
        },
        {
          "internalType": "uint256",
          "name": "recipient_id",
          "type": "uint256"
        },
        {
          "internalType": "address payable",
          "name": "donor_address",
          "type": "address"
        },
        {
          "internalType": "address",
          "name": "recipient_address",
          "type": "address"
        }
      ],
      "stateMutability": "view",
      "type": "function"
    },
    {
      "inputs": [
        {
          "components": [
            {
              "internalType": "uint256",
              "name": "id",
              "type": "uint256"
            },
            {
              "internalType": "address payable",
              "name": "store",
              "type": "address"
            },
            {
              "internalType": "string",
              "name": "name",
              "type": "string"
            },
            {
              "internalType": "uint256",
              "name": "age",
              "type": "uint256"
            },
            {
              "internalType": "uint256",
              "name": "contact_number",
              "type": "uint256"
            },
            {
              "internalType": "uint256",
              "name": "verification_number",
              "type": "uint256"
            },
            {
              "internalType": "string",
              "name": "blood_group",
              "type": "string"
            },
            {
              "components": [
                {
                  "internalType": "uint256",
                  "name": "organ_Id",
                  "type": "uint256"
                },
                {
                  "internalType": "string",
                  "name": "organ_type",
                  "type": "string"
                },
                {
                  "internalType": "uint256",
                  "name": "donor_Id",
                  "type": "uint256"
                },
                {
                  "internalType": "uint256",
                  "name": "recipient_Id",
                  "type": "uint256"
                }
              ],
              "internalType": "struct Organ",
              "name": "organ_type",
              "type": "tuple"
            },
            {
              "internalType": "bool",
              "name": "status",
              "type": "bool"
            },
            {
              "internalType": "bool",
              "name": "death_contract",
              "type": "bool"
            },
            {
              "internalType": "bool",
              "name": "isMedicaallyVerified",
              "type": "bool"
            },
            {
              "internalType": "bool",
              "name": "Verified",
              "type": "bool"
            }
          ],
          "internalType": "struct Donor[]",
          "name": "donor_array",
          "type": "tuple[]"
        },
        {
          "components": [
            {
              "internalType": "uint256",
              "name": "id",
              "type": "uint256"
            },
            {
              "internalType": "address",
              "name": "store",
              "type": "address"
            },
            {
              "internalType": "string",
              "name": "name",
              "type": "string"
            },
            {
              "internalType": "uint256",
              "name": "age",
              "type": "uint256"
            },
            {
              "internalType": "string",
              "name": "organTypeNeeded",
              "type": "string"
            },
            {
              "internalType": "uint256",
              "name": "contactInfo",
              "type": "uint256"
            },
            {
              "internalType": "uint256",
              "name": "verification_number",
              "type": "uint256"
            },
            {
              "internalType": "string",
              "name": "blood_group",
              "type": "string"
            },
            {
              "internalType": "bool",
              "name": "isMedicaallyVerified",
              "type": "bool"
            }
          ],
          "internalType": "struct Recipient",
          "name": "recipient",
          "type": "tuple"
        }
      ],
      "name": "searchAndMatch",
      "outputs": [],
      "stateMutability": "nonpayable",
      "type": "function"
    },
    {
      "inputs": [],
      "name": "getArray",
      "outputs": [
        {
          "components": [
            {
              "internalType": "uint256",
              "name": "id",
              "type": "uint256"
            },
            {
              "components": [
                {
                  "internalType": "uint256",
                  "name": "organ_Id",
                  "type": "uint256"
                },
                {
                  "internalType": "string",
                  "name": "organ_type",
                  "type": "string"
                },
                {
                  "internalType": "uint256",
                  "name": "donor_Id",
                  "type": "uint256"
                },
                {
                  "internalType": "uint256",
                  "name": "recipient_Id",
                  "type": "uint256"
                }
              ],
              "internalType": "struct Organ",
              "name": "organ",
              "type": "tuple"
            },
            {
              "internalType": "uint256",
              "name": "donor_id",
              "type": "uint256"
            },
            {
              "internalType": "uint256",
              "name": "recipient_id",
              "type": "uint256"
            },
            {
              "internalType": "address payable",
              "name": "donor_address",
              "type": "address"
            },
            {
              "internalType": "address",
              "name": "recipient_address",
              "type": "address"
            }
          ],
          "internalType": "struct Match[]",
          "name": "",
          "type": "tuple[]"
        }
      ],
      "stateMutability": "view",
      "type": "function"
    },
    {
      "inputs": [
        {
          "internalType": "uint256",
          "name": "id",
          "type": "uint256"
        }
      ],
      "name": "getRecipientAddress",
      "outputs": [
        {
          "internalType": "address",
          "name": "",
          "type": "address"
        }
      ],
      "stateMutability": "view",
      "type": "function"
    },
    {
      "inputs": [
        {
          "internalType": "uint256",
          "name": "id",
          "type": "uint256"
        }
      ],
      "name": "getDonorAddress",
      "outputs": [
        {
          "internalType": "address payable",
          "name": "",
          "type": "address"
        }
      ],
      "stateMutability": "view",
      "type": "function"
    }
  ],
  "bytecode": "0x608060405234801561001057600080fd5b506117ca806100206000396000f3fe608060405234801561001057600080fd5b50600436106100575760003560e01c8063183370121461005c578063862f13271461008c578063ba872e62146100c1578063d504ea1d146100f1578063d6d610651461010f575b600080fd5b610076600480360381019061007191906108f2565b61012b565b6040516100839190610960565b60405180910390f35b6100a660048036038101906100a191906108f2565b610185565b6040516100b896959493929190610aad565b60405180910390f35b6100db60048036038101906100d691906108f2565b6102cb565b6040516100e89190610b15565b60405180910390f35b6100f9610325565b6040516101069190610cfc565b60405180910390f35b61012960048036038101906101249190611311565b610512565b005b60008060018361013b91906113b8565b8154811061014c5761014b6113ec565b5b906000526020600020906009020160080160009054906101000a900473ffffffffffffffffffffffffffffffffffffffff169050919050565b6000818154811061019557600080fd5b906000526020600020906009020160009150905080600001549080600101604051806080016040529081600082015481526020016001820180546101d89061144a565b80601f01602080910402602001604051908101604052809291908181526020018280546102049061144a565b80156102515780601f1061022657610100808354040283529160200191610251565b820191906000526020600020905b81548152906001019060200180831161023457829003601f168201915b5050505050815260200160028201548152602001600382015481525050908060050154908060060154908060070160009054906101000a900473ffffffffffffffffffffffffffffffffffffffff16908060080160009054906101000a900473ffffffffffffffffffffffffffffffffffffffff16905086565b6000806001836102db91906113b8565b815481106102ec576102eb6113ec565b5b906000526020600020906009020160070160009054906101000a900473ffffffffffffffffffffffffffffffffffffffff169050919050565b60606000805480602002602001604051908101604052809291908181526020016000905b8282101561050957838290600052602060002090600902016040518060c00160405290816000820154815260200160018201604051806080016040529081600082015481526020016001820180546103a09061144a565b80601f01602080910402602001604051908101604052809291908181526020018280546103cc9061144a565b80156104195780601f106103ee57610100808354040283529160200191610419565b820191906000526020600020905b8154815290600101906020018083116103fc57829003601f168201915b5050505050815260200160028201548152602001600382015481525050815260200160058201548152602001600682015481526020016007820160009054906101000a900473ffffffffffffffffffffffffffffffffffffffff1673ffffffffffffffffffffffffffffffffffffffff1673ffffffffffffffffffffffffffffffffffffffff1681526020016008820160009054906101000a900473ffffffffffffffffffffffffffffffffffffffff1673ffffffffffffffffffffffffffffffffffffffff1673ffffffffffffffffffffffffffffffffffffffff168152505081526020019060010190610349565b50505050905090565b600080600090505b835181101561065957826080015160405160200161053891906114b7565b60405160208183030381529060405280519060200120848281518110610561576105606113ec565b5b602002602001015160e001516020015160405160200161058191906114b7565b6040516020818303038152906040528051906020012014801561061157508381815181106105b2576105b16113ec565b5b602002602001015160c001516040516020016105ce91906114b7565b604051602081830303815290604052805190602001208360e001516040516020016105f991906114b7565b60405160208183030381529060405280519060200120145b8015610639575083818151811061062b5761062a6113ec565b5b602002602001015161016001515b1561064657809150610659565b8080610651906114ce565b91505061051a565b506000811415801561067057506000826000015114155b801561067e57508161010001515b156108a357816000015183828151811061069b5761069a6113ec565b5b602002602001015160e001516060018181525050600160008154809291906106c2906114ce565b919050555060006040518060c0016040528060015481526020018584815181106106ef576106ee6113ec565b5b602002602001015160e001518152602001858481518110610713576107126113ec565b5b602002602001015160000151815260200184600001518152602001858481518110610741576107406113ec565b5b60200260200101516020015173ffffffffffffffffffffffffffffffffffffffff168152602001846020015173ffffffffffffffffffffffffffffffffffffffff1681525090506000819080600181540180825580915050600190039060005260206000209060090201600090919091909150600082015181600001556020820151816001016000820151816000015560208201518160010190816107e691906116c2565b5060408201518160020155606082015181600301555050604082015181600501556060820151816006015560808201518160070160006101000a81548173ffffffffffffffffffffffffffffffffffffffff021916908373ffffffffffffffffffffffffffffffffffffffff16021790555060a08201518160080160006101000a81548173ffffffffffffffffffffffffffffffffffffffff021916908373ffffffffffffffffffffffffffffffffffffffff1602179055505050505b505050565b6000604051905090565b600080fd5b600080fd5b6000819050919050565b6108cf816108bc565b81146108da57600080fd5b50565b6000813590506108ec816108c6565b92915050565b600060208284031215610908576109076108b2565b5b6000610916848285016108dd565b91505092915050565b600073ffffffffffffffffffffffffffffffffffffffff82169050919050565b600061094a8261091f565b9050919050565b61095a8161093f565b82525050565b60006020820190506109756000830184610951565b92915050565b610984816108bc565b82525050565b610993816108bc565b82525050565b600081519050919050565b600082825260208201905092915050565b60005b838110156109d35780820151818401526020810190506109b8565b60008484015250505050565b6000601f19601f8301169050919050565b60006109fb82610999565b610a0581856109a4565b9350610a158185602086016109b5565b610a1e816109df565b840191505092915050565b6000608083016000830151610a41600086018261098a565b5060208301518482036020860152610a5982826109f0565b9150506040830151610a6e604086018261098a565b506060830151610a81606086018261098a565b508091505092915050565b6000610a978261091f565b9050919050565b610aa781610a8c565b82525050565b600060c082019050610ac2600083018961097b565b8181036020830152610ad48188610a29565b9050610ae3604083018761097b565b610af0606083018661097b565b610afd6080830185610a9e565b610b0a60a0830184610951565b979650505050505050565b6000602082019050610b2a6000830184610a9e565b92915050565b600081519050919050565b600082825260208201905092915050565b6000819050602082019050919050565b6000608083016000830151610b74600086018261098a565b5060208301518482036020860152610b8c82826109f0565b9150506040830151610ba1604086018261098a565b506060830151610bb4606086018261098a565b508091505092915050565b610bc881610a8c565b82525050565b610bd78161093f565b82525050565b600060c083016000830151610bf5600086018261098a565b5060208301518482036020860152610c0d8282610b5c565b9150506040830151610c22604086018261098a565b506060830151610c35606086018261098a565b506080830151610c486080860182610bbf565b5060a0830151610c5b60a0860182610bce565b508091505092915050565b6000610c728383610bdd565b905092915050565b6000602082019050919050565b6000610c9282610b30565b610c9c8185610b3b565b935083602082028501610cae85610b4c565b8060005b85811015610cea5784840389528151610ccb8582610c66565b9450610cd683610c7a565b925060208a01995050600181019050610cb2565b50829750879550505050505092915050565b60006020820190508181036000830152610d168184610c87565b905092915050565b600080fd5b7f4e487b7100000000000000000000000000000000000000000000000000000000600052604160045260246000fd5b610d5b826109df565b810181811067ffffffffffffffff82111715610d7a57610d79610d23565b5b80604052505050565b6000610d8d6108a8565b9050610d998282610d52565b919050565b600067ffffffffffffffff821115610db957610db8610d23565b5b602082029050602081019050919050565b600080fd5b600080fd5b600080fd5b610de281610a8c565b8114610ded57600080fd5b50565b600081359050610dff81610dd9565b92915050565b600080fd5b600067ffffffffffffffff821115610e2557610e24610d23565b5b610e2e826109df565b9050602081019050919050565b82818337600083830152505050565b6000610e5d610e5884610e0a565b610d83565b905082815260208101848484011115610e7957610e78610e05565b5b610e84848285610e3b565b509392505050565b600082601f830112610ea157610ea0610d1e565b5b8135610eb1848260208601610e4a565b91505092915050565b600060808284031215610ed057610ecf610dcf565b5b610eda6080610d83565b90506000610eea848285016108dd565b600083015250602082013567ffffffffffffffff811115610f0e57610f0d610dd4565b5b610f1a84828501610e8c565b6020830152506040610f2e848285016108dd565b6040830152506060610f42848285016108dd565b60608301525092915050565b60008115159050919050565b610f6381610f4e565b8114610f6e57600080fd5b50565b600081359050610f8081610f5a565b92915050565b60006101808284031215610f9d57610f9c610dcf565b5b610fa8610180610d83565b90506000610fb8848285016108dd565b6000830152506020610fcc84828501610df0565b602083015250604082013567ffffffffffffffff811115610ff057610fef610dd4565b5b610ffc84828501610e8c565b6040830152506060611010848285016108dd565b6060830152506080611024848285016108dd565b60808301525060a0611038848285016108dd565b60a08301525060c082013567ffffffffffffffff81111561105c5761105b610dd4565b5b61106884828501610e8c565b60c08301525060e082013567ffffffffffffffff81111561108c5761108b610dd4565b5b61109884828501610eba565b60e0830152506101006110ad84828501610f71565b610100830152506101206110c384828501610f71565b610120830152506101406110d984828501610f71565b610140830152506101606110ef84828501610f71565b6101608301525092915050565b600061110f61110a84610d9e565b610d83565b9050808382526020820190506020840283018581111561113257611131610dca565b5b835b8181101561117957803567ffffffffffffffff81111561115757611156610d1e565b5b8086016111648982610f86565b85526020850194505050602081019050611134565b5050509392505050565b600082601f83011261119857611197610d1e565b5b81356111a88482602086016110fc565b91505092915050565b6111ba8161093f565b81146111c557600080fd5b50565b6000813590506111d7816111b1565b92915050565b600061012082840312156111f4576111f3610dcf565b5b6111ff610120610d83565b9050600061120f848285016108dd565b6000830152506020611223848285016111c8565b602083015250604082013567ffffffffffffffff81111561124757611246610dd4565b5b61125384828501610e8c565b6040830152506060611267848285016108dd565b606083015250608082013567ffffffffffffffff81111561128b5761128a610dd4565b5b61129784828501610e8c565b60808301525060a06112ab848285016108dd565b60a08301525060c06112bf848285016108dd565b60c08301525060e082013567ffffffffffffffff8111156112e3576112e2610dd4565b5b6112ef84828501610e8c565b60e08301525061010061130484828501610f71565b6101008301525092915050565b60008060408385031215611328576113276108b2565b5b600083013567ffffffffffffffff811115611346576113456108b7565b5b61135285828601611183565b925050602083013567ffffffffffffffff811115611373576113726108b7565b5b61137f858286016111dd565b9150509250929050565b7f4e487b7100000000000000000000000000000000000000000000000000000000600052601160045260246000fd5b60006113c3826108bc565b91506113ce836108bc565b92508282039050818111156113e6576113e5611389565b5b92915050565b7f4e487b7100000000000000000000000000000000000000000000000000000000600052603260045260246000fd5b7f4e487b7100000000000000000000000000000000000000000000000000000000600052602260045260246000fd5b6000600282049050600182168061146257607f821691505b6020821081036114755761147461141b565b5b50919050565b600081905092915050565b600061149182610999565b61149b818561147b565b93506114ab8185602086016109b5565b80840191505092915050565b60006114c38284611486565b915081905092915050565b60006114d9826108bc565b91507fffffffffffffffffffffffffffffffffffffffffffffffffffffffffffffffff820361150b5761150a611389565b5b600182019050919050565b60008190508160005260206000209050919050565b60006020601f8301049050919050565b600082821b905092915050565b6000600883026115787fffffffffffffffffffffffffffffffffffffffffffffffffffffffffffffffff8261153b565b611582868361153b565b95508019841693508086168417925050509392505050565b6000819050919050565b60006115bf6115ba6115b5846108bc565b61159a565b6108bc565b9050919050565b6000819050919050565b6115d9836115a4565b6115ed6115e5826115c6565b848454611548565b825550505050565b600090565b6116026115f5565b61160d8184846115d0565b505050565b5b81811015611631576116266000826115fa565b600181019050611613565b5050565b601f8211156116765761164781611516565b6116508461152b565b8101602085101561165f578190505b61167361166b8561152b565b830182611612565b50505b505050565b600082821c905092915050565b60006116996000198460080261167b565b1980831691505092915050565b60006116b28383611688565b9150826002028217905092915050565b6116cb82610999565b67ffffffffffffffff8111156116e4576116e3610d23565b5b6116ee825461144a565b6116f9828285611635565b600060209050601f83116001811461172c576000841561171a578287015190505b61172485826116a6565b86555061178c565b601f19841661173a86611516565b60005b828110156117625784890151825560018201915060208501945060208101905061173d565b8683101561177f578489015161177b601f891682611688565b8355505b6001600288020188555050505b50505050505056fea2646970667358221220f168fb99faad5d8a896493aee48aa495bf3312d6273afb347b0884cf5baab45c64736f6c63430008110033",
  "immutableReferences": {},
  "source": "//SPDX-License-Identifier: GPL-3.0\r\n\r\npragma solidity ^0.8.0;\r\n\r\n\r\nstruct Donor{\r\n        uint id;\r\n        address payable store;\r\n        string name;\r\n        uint age;\r\n        uint contact_number;\r\n        uint verification_number; //This is what we will use for PAN, Passport etc.\r\n        string blood_group;\r\n        Organ organ_type;\r\n        bool status; //1 if alive 0 if dead;\r\n        bool death_contract;// This is for the death contract of the patient\r\n        bool isMedicaallyVerified;// Boolean factor regarding medical history being administered by doctors\r\n        bool Verified;\r\n    }\r\n\r\nstruct Organ{\r\n    uint organ_Id;\r\n    string organ_type;\r\n    uint donor_Id;\r\n    uint recipient_Id;\r\n}\r\n\r\nstruct Recipient {\r\n        // Fields to store recipient information, such as name, organ type needed, and contact information.\r\n        uint id;\r\n        address store;\r\n        string name;\r\n        uint age;\r\n        string organTypeNeeded;\r\n        uint contactInfo;\r\n        uint verification_number;\r\n        string blood_group;\r\n        bool isMedicaallyVerified;\r\n    }\r\nstruct Match\r\n{\r\n    uint id;\r\n    Organ organ;\r\n    uint donor_id;\r\n    uint recipient_id;\r\n    address payable donor_address;\r\n    address recipient_address;\r\n}\r\n// contract OrganDirectory{\r\n//     mapping(uint=> Organ) private organ_list;\r\n    \r\n//     uint public organ_count;\r\n\r\n//     function addOrgan(string memory organ_type, uint donor_Id, uint recipient_Id, uint price) public{\r\n//         organ_count++;\r\n//         Organ memory new_organ=Organ(organ_count, organ_type, donor_Id, recipient_Id, price);\r\n//         organ_list[organ_count]=new_organ;\r\n//     }\r\n\r\n//     function removeOrgan(uint id) public{\r\n//         delete organ_list[id];\r\n//     }\r\n\r\n//     function getOrgan(uint id) public view returns (Organ memory){\r\n//         return organ_list[id];\r\n//     }\r\n// }\r\n\r\n\r\n\r\ncontract DonorDirectory{\r\n    mapping(uint=> Donor) public donor_list;\r\n    \r\n    uint public donor_count;\r\n    uint public organ_count;\r\n    string public location;\r\n    Donor[] public donor_array;\r\n\r\n    constructor(string memory place){\r\n        location=place;\r\n    } \r\n\r\n    function addDonor(string memory name, address payable store, uint age, uint contact_number, uint verification_number, string memory blood_group, string memory organ_type, bool status, bool death_contract, bool isMedicaallyVerified) public{\r\n        donor_count++;\r\n        organ_count++;\r\n        Donor memory new_donor= Donor(donor_count, store, name, age, contact_number, verification_number, blood_group, Organ(organ_count, organ_type, 0, 0), status, death_contract, isMedicaallyVerified, false);\r\n        donor_array.push(new_donor);\r\n        donor_list[donor_count]=new_donor;\r\n    }\r\n\r\n    function updateMedicalRecords(uint id,bool isMedicaallyVerified) public{\r\n        donor_list[id].isMedicaallyVerified=isMedicaallyVerified;\r\n    }\r\n    function updateDeathContract(uint id, bool death_contract) public{\r\n        donor_list[id].death_contract=death_contract;\r\n    }\r\n\r\n    function isVerified(uint id, uint contact_number, uint verification_number) private view returns(bool){\r\n        if(donor_list[id].age>=18 && contact_number==donor_list[id].contact_number && verification_number==donor_list[id].verification_number && ((donor_list[id].death_contract==true && donor_list[id].status==false) || (donor_list[id].status==true)) && donor_list[id].isMedicaallyVerified==true){\r\n\r\n            return true;\r\n        }\r\n        return false;\r\n    }\r\n\r\n    function removeDonor(uint id) public{\r\n        delete donor_list[id];\r\n    }\r\n\r\n    function getDonor(uint id) public view returns(Donor memory){\r\n        return (donor_list[id]);\r\n    }\r\n\r\n    function getDonorId(uint id) public view returns(address){\r\n        return donor_list[id].store;\r\n    }\r\n\r\n    function siteVerification(uint contact_number, uint verification_number) public returns(bool){\r\n        for(uint i=0; i<donor_array.length; i++){\r\n            if(isVerified(donor_array[i].id, contact_number, verification_number)){\r\n                donor_array[i].Verified=true;\r\n                return true;\r\n            }\r\n        }\r\n        return false;\r\n    }\r\n\r\n    function getArray() public view returns(Donor[] memory){\r\n        return donor_array;\r\n    }\r\n}\r\n\r\ncontract RecipientReg{\r\n    mapping(uint=> Recipient) public recipient_list;\r\n\r\n    uint public recipient_count;\r\n    Recipient[] recipient_array;\r\n\r\n\r\n    function addRecipient(string memory name, address store, uint age, string memory organTypeNeeded, uint contactInfo, uint verification_number, string memory blood_group, bool isMedicaallyVerified) public{\r\n        recipient_count++;\r\n        Recipient memory new_recipient=Recipient(recipient_count, store, name, age, organTypeNeeded, contactInfo, verification_number, blood_group, isMedicaallyVerified);\r\n        recipient_list[recipient_count]=new_recipient;\r\n        recipient_array.push(new_recipient);\r\n    }\r\n\r\n    function updateMedicalRecords(uint id, bool isMedicaallyVerified) public{\r\n        recipient_list[id].isMedicaallyVerified=isMedicaallyVerified;\r\n    }\r\n\r\n    function removeRecipient(uint id) public{\r\n        delete recipient_list[id];\r\n    }\r\n    function getRecipient(uint id) public view returns(Recipient memory){\r\n        return recipient_list[id];\r\n    }\r\n\r\n    function getRecipientId(uint id) public view returns(address){\r\n        return recipient_list[id].store;\r\n    }\r\n\r\n    function payEther(uint id) public view{\r\n        recipient_list[id].store.balance-(1 ether);\r\n    }\r\n\r\n    function getArray() public view returns(Recipient[] memory){\r\n        return recipient_array;\r\n    }\r\n}\r\n\r\ncontract MatchMaking\r\n{\r\n    Match[] public match_array;\r\n    uint match_count;\r\n\r\n    function searchAndMatch(Donor[] memory donor_array, Recipient memory recipient) public{\r\n        uint donor_id;\r\n        for(uint i=0; i<donor_array.length; i++){\r\n            if(keccak256(abi.encodePacked(donor_array[i].organ_type.organ_type))==keccak256(abi.encodePacked(recipient.organTypeNeeded)) && keccak256(abi.encodePacked(recipient.blood_group))== keccak256(abi.encodePacked(donor_array[i].blood_group)) && donor_array[i].Verified){\r\n                donor_id=i;\r\n                break;\r\n            }\r\n        }\r\n\r\n        if(donor_id!=0 && recipient.id!=0 && recipient.isMedicaallyVerified){\r\n            donor_array[donor_id].organ_type.recipient_Id=recipient.id;\r\n            match_count++;\r\n            Match memory new_match=Match(match_count, donor_array[donor_id].organ_type, donor_array[donor_id].id, recipient.id, donor_array[donor_id].store, recipient.store);\r\n            match_array.push(new_match);\r\n        }\r\n    }\r\n\r\n    function getArray() public view returns(Match[] memory){\r\n        return match_array;\r\n    }\r\n    function getRecipientAddress(uint id) public view returns(address){\r\n        return match_array[id-1].recipient_address;\r\n    }\r\n    function getDonorAddress(uint id) public view returns(address payable){\r\n        return match_array[id-1].donor_address;\r\n    }\r\n}\r\n\r\n",
  "sourcePath": "C:\\Users\\LENOVO\\OneDrive\\Documents\\Survive\\chain\\contracts\\Hackathon.sol",
  "compiler": {
    "name": "solc",
    "version": "0.8.17+commit.8df45f5f.Emscripten.clang"
  },
  "schemaVersion": "3.4.11",
  "updatedAt": "2023-01-07T12:19:09.274Z",
  "devdoc": {
    "kind": "dev",
    "methods": {},
    "version": 1
  },
  "userdoc": {
    "kind": "user",
    "methods": {},
    "version": 1
  }
}